:020000040000FA
:10000000280200208101000085010000D9000000C5
:1000100000000000000000000000000000000000E0
:100020000000000000000000000000008901000046
:1000300000000000000000008B0100008D010000A6
:100040008F0100008F0100008F0100008F01000070
:100050008F0100008F0100008F0100008F01000060
:100060008F0100008F0100008F0100008F01000050
:10007000A30400008F0100008F0100008F01000029
:100080008F0100008F0100008F0100008F01000030
:100090008F0100008F0100008F0100008F01000020
:1000A0008F0100008F0100008F0100008F01000010
:1000B0008F0100008F0100008F0100008F01000000
:1000C0000448854600F0A6FB004800477907000079
:1000D000C046C046280200207046400702D4EFF315
:1000E000088001E0EFF3098081690B88094A934297
:1000F00002D104318161704704207146084202D068
:10010000EFF3098001E0EFF308807146024A1047DF
:10011000FEE70000ABBE0000DB010000ABBE01E06B
:1001200000207047002A00D01060012070470000B6
:1001300010B50D4A10694107490F11D0032911D09C
:100140000A4891690907090F491C00F01CFB084C7B
:10015000084920604A10801800F015FB606010BD4F
:100160000548EEE70548ECE7000200500080510129
:100170000000002040420F00001BB70010270000C5
:1001800003480047FEE7FEE7FEE7FEE7FEE7FEE77F
:10019000C100000010B50446016826A000F06EFB07
:1001A00027A0616800F06AFB28A0A16800F066FB48
:1001B00029A0E16800F062FB2AA0216900F05EFB43
:1001C0002BA0616900F05AFB2CA0A16900F056FB3E
:1001D0002DA0E16900F052FB10BD04462DA000F0F7
:1001E0004DFB2046FFF7D6FFFEE770B5304C2F4A97
:1001F000217800255054491CC9B221705554491C1E
:10020000102903D20A2801D000280CD10022274946
:100210000420FFF783FF002804D1217800E0401C70
:100220008842FCDB257070BD10B50446FFF7DDFF8A
:10023000204610BD723020203D20307825780A00FD
:10024000723120203D20307825780A00723220203B
:100250003D20307825780A00723320203D20307808
:1002600025780A00723132203D20307825780A0046
:100270006C7220203D20307825780A0070632020A1
:100280003D20307825780A00707372203D20307848
:1002900025780A00496E2048617264204661756CB9
:1002A000742048616E646C65720A000018000020BA
:1002B0000800002042688A43426070477FB50446C8
:1002C00014480D460FC86E460FC6134840690322F6
:1002D0008001800F00212163E260A160002D17D012
:1002E00081006846465868083018294600F04BFAE5
:1002F0000A49801E884207D9E8003018294600F0D4
:1003000042FA0009801E02E00321090708436062E7
:100310007FBD0000A80B000000020050FFFF00009E
:1003200010B51B2104460903064B05E00A46491E89
:10033000002A01DC002010BDDA6820469043F5D188
:10034000012010BD000200500849002008607047DD
:1003500010B5592116230548882202E00160036088
:1003600002600468012CF9D110BD000000010050AA
:100370000EB56C4901916846FF21417002218170E0
:1003800001780246002901D10A2111706649C96924
:100390000EBD10B56548006B012807D113216248D6
:1003A000FFF788FF012062490003086010BDF8B51F
:1003B000FFF7DEFF5F4D2860FFF7EBFF286800893D
:1003C000C0056DD55CA000F059FA0026574C564F79
:1003D00060E02868037881784268594800F014F991
:1003E0003868C1B22868417056A000F047FA286802
:1003F000417836291DD008DC0A46313A130000F056
:100400004DFA050D0F1214161C00372913D0382988
:1004100019D0392919D071290FD118E05A2100E0DB
:10042000502101700BE04621FBE73C21F9E7322126
:10043000F7E7282200E01E220270462909D0606BEF
:10044000002806D009E01422F6E70A22F4E7092280
:10045000F2E704213A4800F04BF9286841784C292A
:1004600002D1A661012161614178522902D10121A5
:10047000A1616661616B012906D14078462809D0E7
:1004800004212F4800F048F928684078532801D10A
:100490006661A661F869C0079BD12BA000F0EEF958
:1004A000F8BD84E7204841681322114341600120D0
:1004B0001F49000380390860704770B5FFF758FF87
:1004C0001C4C1A4B6060186B002801D1FFF7EAFF43
:1004D000596B1B48002908D0042100F01DF913486E
:1004E0004030016B00290CD00EE0616805460B78A6
:1004F0004A68897800F088F80421284600F0F8F866
:10050000EDE7626846211170416B002902D16268F3
:10051000282111704069002802D161680A20087002
:1005200070BD0000400D0300000005400042005077
:1005300080E100E0100000200A496E7075743A00F6
:1005400000000440256320000A5472616E736D69D7
:100550007373696F6E20546573743A0010B5FFF7BA
:10056000F7FE244C042020601020FFF7D9FEA0687D
:10057000E1010843A060FFF7DBFD05200007416BA8
:100580001D4A11404163416B0322920211434163B2
:10059000A16822031143A16051128163FFF7D4FEC9
:1005A00010BD10B54B21C9011448FFF787FE042187
:1005B000134800F0C1F8134C01222021204600F01E
:1005C000C7F801224021204600F0C2F80D48012260
:1005D0002021803000F0BCF80A4C00224034202159
:1005E000204600F0B5F800221021204600F0B0F8B7
:1005F00010BD000000020050F3F3FFFF00000540B3
:100600000000044000400050FFB54E4883B0006831
:100610001D461146019000F0B6F801264A4CFF270E
:1006200000903146009800F0AEF80121090688429A
:1006300012D8011909020F0E032F00D202273946E2
:1006400000F0A1F801210904884205D8012801D051
:1006500084B205E0012403E07006060E112EE0D3FB
:10066000394671436143019800F08DF87F1E641E86
:10067000FBB2A4B20090012E30D0022E30D0042E56
:1006800030D0082E30D00321304A16680498FF2756
:100690004008C0008740BE4383401E431660536835
:1006A0000498072680008640B34381400B43536083
:1006B0009168082349004908834019439160114615
:1006C0004618002D12D0601C6843642100F05BF8CE
:1006D000401E7062F460009807B0F0BD0421D3E7BB
:1006E0000021D1E70121CFE70221CDE70020F0E78B
:1006F00030B5002210460124234683400B4203D02C
:1007000085002346AB401A43401C0628F4D30F490A
:1007100088681043886030BD30B500200B4C01253F
:1007200003462A4682400A4202D082001219D36050
:10073000401C0628F5D330BD04484030C2690A4346
:10074000C261704700000020FFFF0000000004406D
:10075000F0B5002301273C469C400C4208D00568B8
:100760005C000326A640B5431646A6403543056007
:100770005B1C082BEFD3F0BDFFF7F0FEFFF711FF76
:10078000FFF79BFEFCE730B50B4601460020202218
:10079000012409E00D46D5409D4205D31D469540F4
:1007A000491B2546954040191546521E002DF1DC87
:1007B00030BDF0B51FB40646002082B00546402487
:1007C000019100901BE0019922460F46304600F04F
:1007D00043F8049A059B801A994110D31046194694
:1007E000224600F029F8361A8F410197224601204F
:1007F0000021009F00F020F838184D41009020465D
:10080000641E0028DFDC019B00982946324607B0B1
:10081000F0BD0000064C0125064E05E0E36807CC5C
:100820002B430C3C98471034B442F7D3FFF74CFCF1
:10083000C80B0000E80B000010B5202A04DB0146BD
:10084000203A9140002010BD914020239C1A03467D
:10085000E3401943904010BD10B5202A04DB084640
:10086000203AD040002110BD0B46D340D040202478
:10087000A21A91400843194610BD00000FB410B5EC
:1008800003A9044B044A029800F024F810BC08BCE9
:1008900004B01847290200000C00002030B4744650
:1008A000641E2578641CAB4200D21D46635D5B006C
:1008B000E31830BC184702E008C8121F08C1002A1C
:1008C000FAD170477047002001E001C1121F002AD1
:1008D000FBD17047FFB58FB00F460446002606E0F7
:1008E00025280AD0129A11999047641C761C20780A
:1008F0000028F5D1304613B0F0BD002501219F4AF4
:10090000009500E00543641C23780846203B98408E
:100910001042F7D120782E2815D1042005436078A5
:10092000641C2A280AD101CF641C00900BE00099B6
:100930000A22514330394018641C00902078014647
:1009400030390929F3D920786C280ED004DC4C28E2
:1009500013D06A2812D104E074280ED07A280DD161
:100960000BE001204005054307E0012109056278FD
:100970000D43824201D16D18641C641C20786928E3
:1009800049D008DC0028B5D058286CD063280FD097
:10099000642808D13FE070286AD0732811D07528E8
:1009A0005FD078285FD0129A11999047761CE3E0C7
:1009B0003878694608720020487202A80190012028
:1009C00003E0386801900020C0433F1D69070CD543
:1009D000002500E06D1C00998D420FDA8542F9DB9D
:1009E0000199495D0029F5D108E0002500E06D1C62
:1009F0008542FCDB0199495D0029F8D1761907E0B1
:100A0000019801990078491C0191129A1199904717
:100A10006D1EF5D2B0E00A20029000216802400F5E
:100A2000039102280CD001CFC117844600290DDAAA
:100A300060460A4640420021914184462D2008E04C
:100A4000FF1DFF08FF0003CF8446EFE7280504D50C
:100A50002B206A46107401203DE0E8073BD020209F
:100A6000F7E70A2000E0102000210391029007E040
:100A700010200290002104200543082003910090DB
:100A80006802400F022811D001CF002184460020C7
:100A90000D90280720D52078864670280CD0029A21
:100AA0001020039B42401A430CD015E0FF1DFF08A5
:100AB000FF0003CF8446EAE740206A461074012015
:100AC0000D900CE06046084306D030206A46107452
:100AD0007046507402200D902078582804D028A029
:100AE00001900DA80E900DE02AA0F9E76046039B47
:100AF000029AFFF75EFE019B84469B5C0E9A521E93
:100B00000E92137060460843F0D10E9805A9081A9A
:100B100020300190680701D40120009000990198CD
:100B2000814201DD081A00E000200025009006E067
:100B300004A8129A405D119990476D1C761C0D987F
:100B40008542F5DB04E0129A302011999047761C1B
:100B50000099481E00900029F5DC08E00E980E99D7
:100B60000078491C0E91129A11999047761C0199B0
:100B7000481E01900029F1DC641CB8E60928010038
:100B80003031323334353637383961626364656603
:100B900000000000303132333435363738394142C5
:100BA0004344454600000000001BB7000000000061
:100BB0000080510100805101001BB70000000000BF
:100BC0000080510100805101E80B0000000000206E
:100BD00018000000B6080000000C000018000020FB
:100BE00010020000C608000000805101160000003D
:100BF00000000000000000000000000000000000F5
:040000050000018175
:00000001FF
